{
  "contractName": "hashlock",
  "abi": [
    {
      "constant": true,
      "inputs": [
        {
          "name": "",
          "type": "uint256"
        }
      ],
      "name": "trades",
      "outputs": [
        {
          "name": "sender",
          "type": "address"
        },
        {
          "name": "redeemer",
          "type": "address"
        },
        {
          "name": "senderZAddr",
          "type": "string"
        },
        {
          "name": "redeemerZAddr",
          "type": "string"
        },
        {
          "name": "hash",
          "type": "bytes32"
        },
        {
          "name": "amount",
          "type": "uint256"
        },
        {
          "name": "timeoutBlock",
          "type": "uint256"
        },
        {
          "name": "zecTx",
          "type": "string"
        },
        {
          "name": "zecP2SH",
          "type": "bytes32"
        },
        {
          "name": "zecRedeemScript",
          "type": "string"
        },
        {
          "name": "zecAmount",
          "type": "uint256"
        }
      ],
      "payable": false,
      "stateMutability": "view",
      "type": "function"
    },
    {
      "inputs": [],
      "payable": false,
      "stateMutability": "nonpayable",
      "type": "constructor"
    },
    {
      "anonymous": false,
      "inputs": [
        {
          "indexed": false,
          "name": "sender",
          "type": "address"
        },
        {
          "indexed": false,
          "name": "trade_id",
          "type": "uint256"
        },
        {
          "indexed": false,
          "name": "hash",
          "type": "bytes32"
        },
        {
          "indexed": false,
          "name": "redeemer",
          "type": "address"
        }
      ],
      "name": "newHashlock",
      "type": "event"
    },
    {
      "anonymous": false,
      "inputs": [
        {
          "indexed": false,
          "name": "trade_id",
          "type": "uint256"
        },
        {
          "indexed": false,
          "name": "preimage",
          "type": "string"
        }
      ],
      "name": "unlockHash",
      "type": "event"
    },
    {
      "constant": false,
      "inputs": [
        {
          "name": "_trade_id",
          "type": "uint256"
        },
        {
          "name": "_p2sh",
          "type": "bytes32"
        },
        {
          "name": "_tx",
          "type": "string"
        },
        {
          "name": "_zec_redeem_script",
          "type": "string"
        }
      ],
      "name": "update",
      "outputs": [],
      "payable": false,
      "stateMutability": "nonpayable",
      "type": "function"
    },
    {
      "constant": false,
      "inputs": [
        {
          "name": "_hash",
          "type": "bytes32"
        },
        {
          "name": "_redeemer",
          "type": "address"
        },
        {
          "name": "_expires_in",
          "type": "uint256"
        },
        {
          "name": "_sender_zaddr",
          "type": "string"
        },
        {
          "name": "_redeemer_zaddr",
          "type": "string"
        },
        {
          "name": "_zec_amount",
          "type": "uint256"
        }
      ],
      "name": "lock",
      "outputs": [],
      "payable": true,
      "stateMutability": "payable",
      "type": "function"
    },
    {
      "constant": false,
      "inputs": [
        {
          "name": "_trade_id",
          "type": "uint256"
        },
        {
          "name": "_preimage",
          "type": "string"
        }
      ],
      "name": "unlock",
      "outputs": [],
      "payable": false,
      "stateMutability": "nonpayable",
      "type": "function"
    },
    {
      "constant": false,
      "inputs": [
        {
          "name": "_trade_id",
          "type": "uint256"
        }
      ],
      "name": "refund",
      "outputs": [],
      "payable": false,
      "stateMutability": "nonpayable",
      "type": "function"
    }
  ],
  "bytecode": "0x608060405234801561001057600080fd5b506000808190555061107e806100276000396000f30060806040526004361061006d576000357c0100000000000000000000000000000000000000000000000000000000900463ffffffff1680631e6c598e14610072578063278ecde1146102f55780634bce808a14610322578063a004ce3b14610395578063f71ccf271461045c575b600080fd5b34801561007e57600080fd5b5061009d60048036038101908080359060200190929190505050610540565b604051808c73ffffffffffffffffffffffffffffffffffffffff1673ffffffffffffffffffffffffffffffffffffffff1681526020018b73ffffffffffffffffffffffffffffffffffffffff1673ffffffffffffffffffffffffffffffffffffffff16815260200180602001806020018a600019166000191681526020018981526020018881526020018060200187600019166000191681526020018060200186815260200185810385528e818151815260200191508051906020019080838360005b8381101561017b578082015181840152602081019050610160565b50505050905090810190601f1680156101a85780820380516001836020036101000a031916815260200191505b5085810384528d818151815260200191508051906020019080838360005b838110156101e15780820151818401526020810190506101c6565b50505050905090810190601f16801561020e5780820380516001836020036101000a031916815260200191505b50858103835289818151815260200191508051906020019080838360005b8381101561024757808201518184015260208101905061022c565b50505050905090810190601f1680156102745780820380516001836020036101000a031916815260200191505b50858103825287818151815260200191508051906020019080838360005b838110156102ad578082015181840152602081019050610292565b50505050905090810190601f1680156102da5780820380516001836020036101000a031916815260200191505b509f5050505050505050505050505050505060405180910390f35b34801561030157600080fd5b506103206004803603810190808035906020019092919050505061083a565b005b34801561032e57600080fd5b5061039360048036038101908080359060200190929190803590602001908201803590602001908080601f01602080910402602001604051908101604052809392919081815260200183838082843782019150505050505091929192905050506109bf565b005b3480156103a157600080fd5b5061045a600480360381019080803590602001909291908035600019169060200190929190803590602001908201803590602001908080601f0160208091040260200160405190810160405280939291908181526020018383808284378201915050505050509192919290803590602001908201803590602001908080601f0160208091040260200160405190810160405280939291908181526020018383808284378201915050505050509192919290505050610beb565b005b61053e6004803603810190808035600019169060200190929190803573ffffffffffffffffffffffffffffffffffffffff16906020019092919080359060200190929190803590602001908201803590602001908080601f0160208091040260200160405190810160405280939291908181526020018383808284378201915050505050509192919290803590602001908201803590602001908080601f016020809104026020016040519081016040528093929190818152602001838380828437820191505050505050919291929080359060200190929190505050610cdb565b005b60016020528060005260406000206000915090508060000160009054906101000a900473ffffffffffffffffffffffffffffffffffffffff16908060010160009054906101000a900473ffffffffffffffffffffffffffffffffffffffff1690806002018054600181600116156101000203166002900480601f0160208091040260200160405190810160405280929190818152602001828054600181600116156101000203166002900480156106385780601f1061060d57610100808354040283529160200191610638565b820191906000526020600020905b81548152906001019060200180831161061b57829003601f168201915b505050505090806003018054600181600116156101000203166002900480601f0160208091040260200160405190810160405280929190818152602001828054600181600116156101000203166002900480156106d65780601f106106ab576101008083540402835291602001916106d6565b820191906000526020600020905b8154815290600101906020018083116106b957829003601f168201915b505050505090806004015490806005015490806006015490806007018054600181600116156101000203166002900480601f0160208091040260200160405190810160405280929190818152602001828054600181600116156101000203166002900480156107865780601f1061075b57610100808354040283529160200191610786565b820191906000526020600020905b81548152906001019060200180831161076957829003601f168201915b505050505090806008015490806009018054600181600116156101000203166002900480601f01602080910402602001604051908101604052809291908181526020018280546001816001161561010002031660029004801561082a5780601f106107ff5761010080835404028352916020019161082a565b820191906000526020600020905b81548152906001019060200180831161080d57829003601f168201915b50505050509080600a015490508b565b600160008281526020019081526020016000206006015443101561085d57600080fd5b6001600082815260200190815260200160002060000160009054906101000a900473ffffffffffffffffffffffffffffffffffffffff1673ffffffffffffffffffffffffffffffffffffffff166108fc60016000848152602001908152602001600020600501549081150290604051600060405180830381858888f193505050501580156108ef573d6000803e3d6000fd5b5060016000828152602001908152602001600020600080820160006101000a81549073ffffffffffffffffffffffffffffffffffffffff02191690556001820160006101000a81549073ffffffffffffffffffffffffffffffffffffffff02191690556002820160006109629190610f65565b6003820160006109729190610f65565b60048201600090556005820160009055600682016000905560078201600061099a9190610f65565b60088201600090556009820160006109b29190610f65565b600a820160009055505050565b6001600083815260200190815260200160002060040154600019166002826040518082805190602001908083835b602083101515610a1257805182526020820191506020810190506020830392506109ed565b6001836020036101000a0380198251168184511680821785525050505050509050019150506020604051808303816000865af1158015610a56573d6000803e3d6000fd5b5050506040513d6020811015610a6b57600080fd5b810190808051906020019092919050505060001916141515610a8c57600080fd5b600160008381526020019081526020016000206006015443101515610ab057600080fd5b6001600083815260200190815260200160002060010160009054906101000a900473ffffffffffffffffffffffffffffffffffffffff1673ffffffffffffffffffffffffffffffffffffffff166108fc60016000858152602001908152602001600020600501549081150290604051600060405180830381858888f19350505050158015610b42573d6000803e3d6000fd5b507f7ce2391c3064a4cf05eadd0bd88ef3b40a0129fa80e2dcddc57e0ed12ebd562882826040518083815260200180602001828103825283818151815260200191508051906020019080838360005b83811015610bac578082015181840152602081019050610b91565b50505050905090810190601f168015610bd95780820380516001836020036101000a031916815260200191505b50935050505060405180910390a15050565b6001600085815260200190815260200160002060010160009054906101000a900473ffffffffffffffffffffffffffffffffffffffff1673ffffffffffffffffffffffffffffffffffffffff163373ffffffffffffffffffffffffffffffffffffffff161415610cd0578260016000868152602001908152602001600020600801816000191690555081600160008681526020019081526020016000206007019080519060200190610c9e929190610fad565b508060016000805481526020019081526020016000206009019080519060200190610cca929190610fad565b50610cd5565b600080fd5b50505050565b600034111515610cea57600080fd5b600080815480929190600101919050555033600160008054815260200190815260200160002060000160006101000a81548173ffffffffffffffffffffffffffffffffffffffff021916908373ffffffffffffffffffffffffffffffffffffffff1602179055508260016000805481526020019081526020016000206002019080519060200190610d7c929190610fad565b508160016000805481526020019081526020016000206003019080519060200190610da8929190610fad565b5084600160008054815260200190815260200160002060010160006101000a81548173ffffffffffffffffffffffffffffffffffffffff021916908373ffffffffffffffffffffffffffffffffffffffff160217905550856001600080548152602001908152602001600020600401816000191690555034600160008054815260200190815260200160002060050181905550834301600160008054815260200190815260200160002060060181905550806001600080548152602001908152602001600020600a01819055507f054da37c6341ee7ffb28fa7735d7a41be2c26847322894c16a774062a63536a83360005488600160008054815260200190815260200160002060010160009054906101000a900473ffffffffffffffffffffffffffffffffffffffff16604051808573ffffffffffffffffffffffffffffffffffffffff1673ffffffffffffffffffffffffffffffffffffffff16815260200184815260200183600019166000191681526020018273ffffffffffffffffffffffffffffffffffffffff1673ffffffffffffffffffffffffffffffffffffffff16815260200194505050505060405180910390a1505050505050565b50805460018160011615610100020316600290046000825580601f10610f8b5750610faa565b601f016020900490600052602060002090810190610fa9919061102d565b5b50565b828054600181600116156101000203166002900490600052602060002090601f016020900481019282601f10610fee57805160ff191683800117855561101c565b8280016001018555821561101c579182015b8281111561101b578251825591602001919060010190611000565b5b509050611029919061102d565b5090565b61104f91905b8082111561104b576000816000905550600101611033565b5090565b905600a165627a7a72305820dd0f25dddd53557ca755d595e6f5b2da862ec4a963eb2e96e272c6c2b742670d0029",
  "source": "pragma solidity ^0.4.11;\n\ncontract hashlock {\n\n    struct tradeData {\n        address sender;\n        address redeemer;\n        string senderZAddr;\n        string redeemerZAddr;\n        bytes32 hash;\n        uint amount;\n        uint timeoutBlock;\n        string zecTx;\n        bytes32 zecP2SH;\n        string zecRedeemScript;\n        uint zecAmount;\n    }\n\n    uint nextTradeId;\n\n    event newHashlock(address sender, uint trade_id, bytes32 hash, address redeemer);\n    event unlockHash(uint trade_id, string preimage);\n\n    mapping (uint => tradeData) public trades;\n\n    function hashlock(){\n        nextTradeId = 0;\n    }\n\n    function update(uint _trade_id, bytes32 _p2sh, string _tx, string _zec_redeem_script){\n\n        if(msg.sender == trades[_trade_id].redeemer){\n            trades[_trade_id].zecP2SH = _p2sh;\n            trades[_trade_id].zecTx = _tx;\n            trades[nextTradeId].zecRedeemScript = _zec_redeem_script;\n        }else{\n            throw;\n        }\n    }\n\n    function lock(bytes32 _hash, address _redeemer, uint _expires_in, string _sender_zaddr, string _redeemer_zaddr, uint _zec_amount) payable {\n\n        if(msg.value <= 0){\n            throw;\n        }\n\n        nextTradeId++;\n        trades[nextTradeId].sender = msg.sender;\n        trades[nextTradeId].senderZAddr = _sender_zaddr;\n        trades[nextTradeId].redeemerZAddr = _redeemer_zaddr;\n        trades[nextTradeId].redeemer = _redeemer;\n        trades[nextTradeId].hash = _hash;\n        trades[nextTradeId].amount = msg.value;\n        trades[nextTradeId].timeoutBlock = block.number + _expires_in;\n        trades[nextTradeId].zecAmount = _zec_amount;\n\n        newHashlock(msg.sender, nextTradeId, _hash, trades[nextTradeId].redeemer);\n    }\n\n    function unlock(uint _trade_id, string _preimage) public {\n\n        if (sha256(_preimage) != trades[_trade_id].hash) {\n            /* can only withdraw if has correct preimage */\n            throw;\n        }\n        if (block.number >= trades[_trade_id].timeoutBlock ) {\n            /* can only withdraw before block timeout */\n            throw;\n        }\n        trades[_trade_id].redeemer.transfer(trades[_trade_id].amount);\n        unlockHash(_trade_id, _preimage);\n    }\n\n      /* can only refund to msg sender, after timeout */\n    function refund(uint _trade_id) {\n\n        if (block.number < trades[_trade_id].timeoutBlock ) {\n            /* can only withdraw after block timeout */\n            throw;\n        }\n        /* if timeout has passed, refund initiator */\n        trades[_trade_id].sender.transfer(trades[_trade_id].amount);\n        /* delete the trades[msg.sender] from the mapping */\n        delete trades[_trade_id];\n      }\n}\n",
  "sourcePath": "/Users/tim.siwula/Documents/Projects/Zcash-Eth-Atomic-Trades/contracts/hashlock.sol",
  "compiler": {
    "name": "solc",
    "version": "0.4.24+commit.e67f0147.Emscripten.clang"
  },
  "schemaVersion": "2.0.0",
  "updatedAt": "2018-06-07T23:27:42.431Z"
}